{
  "contractName": "CasadaTokenSale",
  "abi": [
    {
      "inputs": [
        {
          "internalType": "contract CasadaToken",
          "name": "_tokenContract",
          "type": "address"
        },
        {
          "internalType": "uint256",
          "name": "_tokenPrice",
          "type": "uint256"
        }
      ],
      "payable": false,
      "stateMutability": "nonpayable",
      "type": "constructor"
    },
    {
      "constant": true,
      "inputs": [],
      "name": "tokenContract",
      "outputs": [
        {
          "internalType": "contract CasadaToken",
          "name": "",
          "type": "address"
        }
      ],
      "payable": false,
      "stateMutability": "view",
      "type": "function"
    },
    {
      "constant": true,
      "inputs": [],
      "name": "tokenPrice",
      "outputs": [
        {
          "internalType": "uint256",
          "name": "",
          "type": "uint256"
        }
      ],
      "payable": false,
      "stateMutability": "view",
      "type": "function"
    },
    {
      "constant": false,
      "inputs": [
        {
          "internalType": "uint256",
          "name": "_numberOfTokens",
          "type": "uint256"
        }
      ],
      "name": "buyTokens",
      "outputs": [],
      "payable": true,
      "stateMutability": "payable",
      "type": "function"
    }
  ],
  "bytecode": "0x608060405234801561001057600080fd5b506040516102343803806102348339818101604052604081101561003357600080fd5b810190808051906020019092919080519060200190929190505050336000806101000a81548173ffffffffffffffffffffffffffffffffffffffff021916908373ffffffffffffffffffffffffffffffffffffffff16021790555081600160006101000a81548173ffffffffffffffffffffffffffffffffffffffff021916908373ffffffffffffffffffffffffffffffffffffffff16021790555080600281905550505061014d806100e76000396000f3fe6080604052600436106100345760003560e01c80633610724e1461003957806355a373d6146100675780637ff9b596146100be575b600080fd5b6100656004803603602081101561004f57600080fd5b81019080803590602001909291905050506100e9565b005b34801561007357600080fd5b5061007c6100ec565b604051808273ffffffffffffffffffffffffffffffffffffffff1673ffffffffffffffffffffffffffffffffffffffff16815260200191505060405180910390f35b3480156100ca57600080fd5b506100d3610112565b6040518082815260200191505060405180910390f35b50565b600160009054906101000a900473ffffffffffffffffffffffffffffffffffffffff1681565b6002548156fea265627a7a723158205b17d1bacd0c106a24bfd22e97e2f7d0fd1bed29ec3d668eb9bb1e10cc30263564736f6c63430005100032",
  "source": "pragma solidity ^0.5.0;\n\nimport \"./CasadaToken.sol\";\n\ncontract CasadaTokenSale{\n    address admin;\n    CasadaToken public tokenContract;\n    uint256 public tokenPrice;\n\n    constructor(CasadaToken _tokenContract, uint256 _tokenPrice) public{\n        admin = msg.sender;\n        tokenContract = _tokenContract;\n        tokenPrice = _tokenPrice;\n    }\n    function buyTokens(uint256 _numberOfTokens) public payable {\n        \n    }\n\n}",
  "sourcePath": "/home/esdras/Documents/Casada-ERC20-token/contracts/CasadaTokenSale.sol",
  "compiler": {
    "name": "solc",
    "version": "0.5.16+commit.9c3226ce.Emscripten.clang"
  },
  "schemaVersion": "3.3.4",
  "updatedAt": "2021-02-20T19:47:20.507Z",
  "networkType": "ethereum",
  "devdoc": {
    "methods": {}
  },
  "userdoc": {
    "methods": {}
  }
}