{
  "contractName": "CasadaToken",
  "abi": [
    {
      "inputs": [],
      "payable": false,
      "stateMutability": "nonpayable",
      "type": "constructor"
    },
    {
      "constant": true,
      "inputs": [],
      "name": "totalSupply",
      "outputs": [
        {
          "internalType": "uint256",
          "name": "",
          "type": "uint256"
        }
      ],
      "payable": false,
      "stateMutability": "view",
      "type": "function"
    }
  ],
  "bytecode": "0x6080604052348015600f57600080fd5b50620f42406000819055506084806100286000396000f3fe6080604052348015600f57600080fd5b506004361060285760003560e01c806318160ddd14602d575b600080fd5b60336049565b6040518082815260200191505060405180910390f35b6000548156fea265627a7a72315820f44adfb2f14db70ea07583f49c54c32ad07bc7cf4197cca066a8c93424167edd64736f6c63430005100032",
  "source": "pragma solidity ^0.5.1;\n\ncontract CasadaToken{\n    uint256 public totalSupply;\n\n    constructor() public{\n        totalSupply = 1000000;\n    }\n    \n}",
  "sourcePath": "/home/esdras/Documents/Casada-ERC20-token/contracts/CasadaToken.sol",
  "compiler": {
    "name": "solc",
    "version": "0.5.16+commit.9c3226ce.Emscripten.clang"
  },
  "schemaVersion": "3.3.4",
  "updatedAt": "2021-02-15T19:14:20.992Z",
  "networkType": "ethereum",
  "devdoc": {
    "methods": {}
  },
  "userdoc": {
    "methods": {}
  }
}